{
  "_format": "hh-sol-artifact-1",
  "contractName": "IdentityFactory",
  "sourceName": "contracts/IdentityFactory.sol",
  "abi": [
    {
      "anonymous": false,
      "inputs": [
        {
          "indexed": true,
          "internalType": "address",
          "name": "identity",
          "type": "address"
        },
        {
          "indexed": false,
          "internalType": "address[]",
          "name": "owners",
          "type": "address[]"
        }
      ],
      "name": "NewIdentity",
      "type": "event"
    },
    {
      "inputs": [
        {
          "internalType": "address[]",
          "name": "_owners",
          "type": "address[]"
        },
        {
          "internalType": "uint256[]",
          "name": "_equities",
          "type": "uint256[]"
        }
      ],
      "name": "createIdentity",
      "outputs": [],
      "stateMutability": "nonpayable",
      "type": "function"
    }
  ],
  "bytecode": "0x608060405234801561001057600080fd5b506125ee806100206000396000f3fe60806040523480156200001157600080fd5b50600436106200002e5760003560e01c8063eea366921462000033575b600080fd5b6200005160048036038101906200004b9190620003f4565b62000053565b005b600082826040516200006590620000e7565b6200007292919062000615565b604051809103906000f0801580156200008f573d6000803e3d6000fd5b5090508073ffffffffffffffffffffffffffffffffffffffff167f38dc6394d82e3b8c5c65803fcfdf0f9148e4446849761fa0dd76369078f74fc484604051620000da919062000650565b60405180910390a2505050565b611f44806200067583390190565b6000604051905090565b600080fd5b600080fd5b600080fd5b6000601f19601f8301169050919050565b7f4e487b7100000000000000000000000000000000000000000000000000000000600052604160045260246000fd5b62000159826200010e565b810181811067ffffffffffffffff821117156200017b576200017a6200011f565b5b80604052505050565b600062000190620000f5565b90506200019e82826200014e565b919050565b600067ffffffffffffffff821115620001c157620001c06200011f565b5b602082029050602081019050919050565b600080fd5b600073ffffffffffffffffffffffffffffffffffffffff82169050919050565b60006200020482620001d7565b9050919050565b6200021681620001f7565b81146200022257600080fd5b50565b60008135905062000236816200020b565b92915050565b6000620002536200024d84620001a3565b62000184565b90508083825260208201905060208402830185811115620002795762000278620001d2565b5b835b81811015620002a6578062000291888262000225565b8452602084019350506020810190506200027b565b5050509392505050565b600082601f830112620002c857620002c762000109565b5b8135620002da8482602086016200023c565b91505092915050565b600067ffffffffffffffff8211156200030157620003006200011f565b5b602082029050602081019050919050565b6000819050919050565b620003278162000312565b81146200033357600080fd5b50565b60008135905062000347816200031c565b92915050565b6000620003646200035e84620002e3565b62000184565b905080838252602082019050602084028301858111156200038a5762000389620001d2565b5b835b81811015620003b75780620003a2888262000336565b8452602084019350506020810190506200038c565b5050509392505050565b600082601f830112620003d957620003d862000109565b5b8135620003eb8482602086016200034d565b91505092915050565b600080604083850312156200040e576200040d620000ff565b5b600083013567ffffffffffffffff8111156200042f576200042e62000104565b5b6200043d85828601620002b0565b925050602083013567ffffffffffffffff81111562000461576200046062000104565b5b6200046f85828601620003c1565b9150509250929050565b600081519050919050565b600082825260208201905092915050565b6000819050602082019050919050565b620004b081620001f7565b82525050565b6000620004c48383620004a5565b60208301905092915050565b6000602082019050919050565b6000620004ea8262000479565b620004f6818562000484565b9350620005038362000495565b8060005b838110156200053a5781516200051e8882620004b6565b97506200052b83620004d0565b92505060018101905062000507565b5085935050505092915050565b600081519050919050565b600082825260208201905092915050565b6000819050602082019050919050565b6200057e8162000312565b82525050565b600062000592838362000573565b60208301905092915050565b6000602082019050919050565b6000620005b88262000547565b620005c4818562000552565b9350620005d18362000563565b8060005b8381101562000608578151620005ec888262000584565b9750620005f9836200059e565b925050600181019050620005d5565b5085935050505092915050565b60006040820190508181036000830152620006318185620004dd565b90508181036020830152620006478184620005ab565b90509392505050565b600060208201905081810360008301526200066c8184620004dd565b90509291505056fe60806040523480156200001157600080fd5b5060405162001f4438038062001f44833981810160405281019062000037919062000512565b81600090805190602001906200004f92919062000165565b5060005b82518110156200015c5760016004600085848151811062000079576200007862000597565b5b602002602001015173ffffffffffffffffffffffffffffffffffffffff1673ffffffffffffffffffffffffffffffffffffffff16815260200190815260200160002060006101000a81548160ff021916908315150217905550818181518110620000e857620000e762000597565b5b6020026020010151600160008584815181106200010a576200010962000597565b5b602002602001015173ffffffffffffffffffffffffffffffffffffffff1673ffffffffffffffffffffffffffffffffffffffff1681526020019081526020016000208190555080600101905062000053565b505050620005c6565b828054828255906000526020600020908101928215620001e1579160200282015b82811115620001e05782518260006101000a81548173ffffffffffffffffffffffffffffffffffffffff021916908373ffffffffffffffffffffffffffffffffffffffff1602179055509160200191906001019062000186565b5b509050620001f09190620001f4565b5090565b5b808211156200020f576000816000905550600101620001f5565b5090565b6000604051905090565b600080fd5b600080fd5b600080fd5b6000601f19601f8301169050919050565b7f4e487b7100000000000000000000000000000000000000000000000000000000600052604160045260246000fd5b62000277826200022c565b810181811067ffffffffffffffff821117156200029957620002986200023d565b5b80604052505050565b6000620002ae62000213565b9050620002bc82826200026c565b919050565b600067ffffffffffffffff821115620002df57620002de6200023d565b5b602082029050602081019050919050565b600080fd5b600073ffffffffffffffffffffffffffffffffffffffff82169050919050565b60006200032282620002f5565b9050919050565b620003348162000315565b81146200034057600080fd5b50565b600081519050620003548162000329565b92915050565b6000620003716200036b84620002c1565b620002a2565b90508083825260208201905060208402830185811115620003975762000396620002f0565b5b835b81811015620003c45780620003af888262000343565b84526020840193505060208101905062000399565b5050509392505050565b600082601f830112620003e657620003e562000227565b5b8151620003f88482602086016200035a565b91505092915050565b600067ffffffffffffffff8211156200041f576200041e6200023d565b5b602082029050602081019050919050565b6000819050919050565b620004458162000430565b81146200045157600080fd5b50565b60008151905062000465816200043a565b92915050565b6000620004826200047c8462000401565b620002a2565b90508083825260208201905060208402830185811115620004a857620004a7620002f0565b5b835b81811015620004d55780620004c0888262000454565b845260208401935050602081019050620004aa565b5050509392505050565b600082601f830112620004f757620004f662000227565b5b8151620005098482602086016200046b565b91505092915050565b600080604083850312156200052c576200052b6200021d565b5b600083015167ffffffffffffffff8111156200054d576200054c62000222565b5b6200055b85828601620003ce565b925050602083015167ffffffffffffffff8111156200057f576200057e62000222565b5b6200058d85828601620004df565b9150509250929050565b7f4e487b7100000000000000000000000000000000000000000000000000000000600052603260045260246000fd5b61196e80620005d66000396000f3fe6080604052600436106100e15760003560e01c806394ab67fe1161007f578063c387892d11610059578063c387892d146102f5578063d87bf3f514610332578063d8cb55e31461035b578063f0a4712814610386576100e8565b806394ab67fe14610263578063a0e67e2b1461028c578063a2fa8825146102b7576100e8565b80632f54bf6e116100bb5780632f54bf6e146101a75780632f757006146101e457806336c877541461020f5780633ccfd60b1461024c576100e8565b8063025e7c27146100ed578063150b7a021461012a578063265aa62114610167576100e8565b366100e857005b600080fd5b3480156100f957600080fd5b50610114600480360381019061010f919061113d565b61039d565b60405161012191906111ab565b60405180910390f35b34801561013657600080fd5b50610151600480360381019061014c9190611257565b6103dc565b60405161015e919061131a565b60405180910390f35b34801561017357600080fd5b5061018e6004803603810190610189919061113d565b6103f1565b60405161019e9493929190611344565b60405180910390f35b3480156101b357600080fd5b506101ce60048036038101906101c99190611389565b610471565b6040516101db91906113d1565b60405180910390f35b3480156101f057600080fd5b506101f9610491565b60405161020691906114aa565b60405180910390f35b34801561021b57600080fd5b506102366004803603810190610231919061113d565b61051f565b60405161024391906111ab565b60405180910390f35b34801561025857600080fd5b5061026161055e565b005b34801561026f57600080fd5b5061028a600480360381019061028591906114cc565b6109ad565b005b34801561029857600080fd5b506102a1610b42565b6040516102ae91906114aa565b60405180910390f35b3480156102c357600080fd5b506102de60048036038101906102d991906114cc565b610bd0565b6040516102ec92919061150c565b60405180910390f35b34801561030157600080fd5b5061031c60048036038101906103179190611389565b610ce8565b6040516103299190611535565b60405180910390f35b34801561033e57600080fd5b5061035960048036038101906103549190611389565b610d00565b005b34801561036757600080fd5b50610370610df2565b60405161037d9190611663565b60405180910390f35b34801561039257600080fd5b5061039b610f11565b005b600081815481106103ad57600080fd5b906000526020600020016000915054906101000a900473ffffffffffffffffffffffffffffffffffffffff1681565b600063150b7a0260e01b905095945050505050565b6003818154811061040157600080fd5b90600052602060002090600402016000915090508060000160009054906101000a900473ffffffffffffffffffffffffffffffffffffffff16908060010160009054906101000a900473ffffffffffffffffffffffffffffffffffffffff16908060020154908060030154905084565b60046020528060005260406000206000915054906101000a900460ff1681565b6060600280548060200260200160405190810160405280929190818152602001828054801561051557602002820191906000526020600020905b8160009054906101000a900473ffffffffffffffffffffffffffffffffffffffff1673ffffffffffffffffffffffffffffffffffffffff16815260200190600101908083116104cb575b5050505050905090565b6002818154811061052f57600080fd5b906000526020600020016000915054906101000a900473ffffffffffffffffffffffffffffffffffffffff1681565b600460003373ffffffffffffffffffffffffffffffffffffffff1673ffffffffffffffffffffffffffffffffffffffff16815260200190815260200160002060009054906101000a900460ff166105ea576040517f08c379a00000000000000000000000000000000000000000000000000000000081526004016105e1906116e2565b60405180910390fd5b600047905060008080549050905060005b81811015610726576000818154811061061757610616611702565b5b9060005260206000200160009054906101000a900473ffffffffffffffffffffffffffffffffffffffff1673ffffffffffffffffffffffffffffffffffffffff166108fc60646001600080868154811061067457610673611702565b5b9060005260206000200160009054906101000a900473ffffffffffffffffffffffffffffffffffffffff1673ffffffffffffffffffffffffffffffffffffffff1673ffffffffffffffffffffffffffffffffffffffff16815260200190815260200160002054866106e59190611760565b6106ef91906117e9565b9081150290604051600060405180830381858888f1935050505015801561071a573d6000803e3d6000fd5b508060010190506105fb565b506000600280549050905060005b818110156109a75760006002828154811061075257610751611702565b5b9060005260206000200160009054906101000a900473ffffffffffffffffffffffffffffffffffffffff1673ffffffffffffffffffffffffffffffffffffffff166370a08231306040518263ffffffff1660e01b81526004016107b591906111ab565b602060405180830381865afa1580156107d2573d6000803e3d6000fd5b505050506040513d601f19601f820116820180604052508101906107f6919061182f565b905060005b84811015610992576002838154811061081757610816611702565b5b9060005260206000200160009054906101000a900473ffffffffffffffffffffffffffffffffffffffff1673ffffffffffffffffffffffffffffffffffffffff1663a9059cbb6000838154811061087157610870611702565b5b9060005260206000200160009054906101000a900473ffffffffffffffffffffffffffffffffffffffff166064600160008087815481106108b5576108b4611702565b5b9060005260206000200160009054906101000a900473ffffffffffffffffffffffffffffffffffffffff1673ffffffffffffffffffffffffffffffffffffffff1673ffffffffffffffffffffffffffffffffffffffff16815260200190815260200160002054866109269190611760565b61093091906117e9565b6040518363ffffffff1660e01b815260040161094d92919061185c565b600060405180830381600087803b15801561096757600080fd5b505af115801561097b573d6000803e3d6000fd5b50505050808061098a90611885565b9150506107fb565b5050808061099f90611885565b915050610734565b50505050565b8173ffffffffffffffffffffffffffffffffffffffff166342842e0e3330846040518463ffffffff1660e01b81526004016109ea939291906118cd565b600060405180830381600087803b158015610a0457600080fd5b505af1158015610a18573d6000803e3d6000fd5b50505050600060405180608001604052803373ffffffffffffffffffffffffffffffffffffffff1681526020018473ffffffffffffffffffffffffffffffffffffffff168152602001838152602001438152509050600381908060018154018082558091505060019003906000526020600020906004020160009091909190915060008201518160000160006101000a81548173ffffffffffffffffffffffffffffffffffffffff021916908373ffffffffffffffffffffffffffffffffffffffff16021790555060208201518160010160006101000a81548173ffffffffffffffffffffffffffffffffffffffff021916908373ffffffffffffffffffffffffffffffffffffffff16021790555060408201518160020155606082015181600301555050505050565b60606000805480602002602001604051908101604052809291908181526020018280548015610bc657602002820191906000526020600020905b8160009054906101000a900473ffffffffffffffffffffffffffffffffffffffff1673ffffffffffffffffffffffffffffffffffffffff1681526020019060010190808311610b7c575b5050505050905090565b6000806000806000600380549050905060005b81811015610cd7578773ffffffffffffffffffffffffffffffffffffffff1660038281548110610c1657610c15611702565b5b906000526020600020906004020160010160009054906101000a900473ffffffffffffffffffffffffffffffffffffffff1673ffffffffffffffffffffffffffffffffffffffff16148015610c8f57508660038281548110610c7b57610c7a611702565b5b906000526020600020906004020160020154145b15610ccc576001935060038181548110610cac57610cab611702565b5b90600052602060002090600402016003015443610cc99190611904565b92505b806001019050610be3565b508282945094505050509250929050565b60016020528060005260406000206000915090505481565b600460003373ffffffffffffffffffffffffffffffffffffffff1673ffffffffffffffffffffffffffffffffffffffff16815260200190815260200160002060009054906101000a900460ff16610d8c576040517f08c379a0000000000000000000000000000000000000000000000000000000008152600401610d83906116e2565b60405180910390fd5b6002819080600181540180825580915050600190039060005260206000200160009091909190916101000a81548173ffffffffffffffffffffffffffffffffffffffff021916908373ffffffffffffffffffffffffffffffffffffffff16021790555050565b60606003805480602002602001604051908101604052809291908181526020016000905b82821015610f0857838290600052602060002090600402016040518060800160405290816000820160009054906101000a900473ffffffffffffffffffffffffffffffffffffffff1673ffffffffffffffffffffffffffffffffffffffff1673ffffffffffffffffffffffffffffffffffffffff1681526020016001820160009054906101000a900473ffffffffffffffffffffffffffffffffffffffff1673ffffffffffffffffffffffffffffffffffffffff1673ffffffffffffffffffffffffffffffffffffffff1681526020016002820154815260200160038201548152505081526020019060010190610e16565b50505050905090565b600460003373ffffffffffffffffffffffffffffffffffffffff1673ffffffffffffffffffffffffffffffffffffffff16815260200190815260200160002060009054906101000a900460ff16610f9d576040517f08c379a0000000000000000000000000000000000000000000000000000000008152600401610f94906116e2565b60405180910390fd5b610fa561055e565b6000600380549050905060005b818110156110e35760038181548110610fce57610fcd611702565b5b906000526020600020906004020160010160009054906101000a900473ffffffffffffffffffffffffffffffffffffffff1673ffffffffffffffffffffffffffffffffffffffff166342842e0e30600384815481106110305761102f611702565b5b906000526020600020906004020160000160009054906101000a900473ffffffffffffffffffffffffffffffffffffffff166003858154811061107657611075611702565b5b9060005260206000209060040201600201546040518463ffffffff1660e01b81526004016110a6939291906118cd565b600060405180830381600087803b1580156110c057600080fd5b505af11580156110d4573d6000803e3d6000fd5b50505050806001019050610fb2565b503373ffffffffffffffffffffffffffffffffffffffff16ff5b600080fd5b600080fd5b6000819050919050565b61111a81611107565b811461112557600080fd5b50565b60008135905061113781611111565b92915050565b600060208284031215611153576111526110fd565b5b600061116184828501611128565b91505092915050565b600073ffffffffffffffffffffffffffffffffffffffff82169050919050565b60006111958261116a565b9050919050565b6111a58161118a565b82525050565b60006020820190506111c0600083018461119c565b92915050565b6111cf8161118a565b81146111da57600080fd5b50565b6000813590506111ec816111c6565b92915050565b600080fd5b600080fd5b600080fd5b60008083601f840112611217576112166111f2565b5b8235905067ffffffffffffffff811115611234576112336111f7565b5b6020830191508360018202830111156112505761124f6111fc565b5b9250929050565b600080600080600060808688031215611273576112726110fd565b5b6000611281888289016111dd565b9550506020611292888289016111dd565b94505060406112a388828901611128565b935050606086013567ffffffffffffffff8111156112c4576112c3611102565b5b6112d088828901611201565b92509250509295509295909350565b60007fffffffff0000000000000000000000000000000000000000000000000000000082169050919050565b611314816112df565b82525050565b600060208201905061132f600083018461130b565b92915050565b61133e81611107565b82525050565b6000608082019050611359600083018761119c565b611366602083018661119c565b6113736040830185611335565b6113806060830184611335565b95945050505050565b60006020828403121561139f5761139e6110fd565b5b60006113ad848285016111dd565b91505092915050565b60008115159050919050565b6113cb816113b6565b82525050565b60006020820190506113e660008301846113c2565b92915050565b600081519050919050565b600082825260208201905092915050565b6000819050602082019050919050565b6114218161118a565b82525050565b60006114338383611418565b60208301905092915050565b6000602082019050919050565b6000611457826113ec565b61146181856113f7565b935061146c83611408565b8060005b8381101561149d5781516114848882611427565b975061148f8361143f565b925050600181019050611470565b5085935050505092915050565b600060208201905081810360008301526114c4818461144c565b905092915050565b600080604083850312156114e3576114e26110fd565b5b60006114f1858286016111dd565b925050602061150285828601611128565b9150509250929050565b600060408201905061152160008301856113c2565b61152e6020830184611335565b9392505050565b600060208201905061154a6000830184611335565b92915050565b600081519050919050565b600082825260208201905092915050565b6000819050602082019050919050565b61158581611107565b82525050565b6080820160008201516115a16000850182611418565b5060208201516115b46020850182611418565b5060408201516115c7604085018261157c565b5060608201516115da606085018261157c565b50505050565b60006115ec838361158b565b60808301905092915050565b6000602082019050919050565b600061161082611550565b61161a818561155b565b93506116258361156c565b8060005b8381101561165657815161163d88826115e0565b9750611648836115f8565b925050600181019050611629565b5085935050505092915050565b6000602082019050818103600083015261167d8184611605565b905092915050565b600082825260208201905092915050565b7f6e6f742061206f776e6572000000000000000000000000000000000000000000600082015250565b60006116cc600b83611685565b91506116d782611696565b602082019050919050565b600060208201905081810360008301526116fb816116bf565b9050919050565b7f4e487b7100000000000000000000000000000000000000000000000000000000600052603260045260246000fd5b7f4e487b7100000000000000000000000000000000000000000000000000000000600052601160045260246000fd5b600061176b82611107565b915061177683611107565b9250817fffffffffffffffffffffffffffffffffffffffffffffffffffffffffffffffff04831182151516156117af576117ae611731565b5b828202905092915050565b7f4e487b7100000000000000000000000000000000000000000000000000000000600052601260045260246000fd5b60006117f482611107565b91506117ff83611107565b92508261180f5761180e6117ba565b5b828204905092915050565b60008151905061182981611111565b92915050565b600060208284031215611845576118446110fd565b5b60006118538482850161181a565b91505092915050565b6000604082019050611871600083018561119c565b61187e6020830184611335565b9392505050565b600061189082611107565b91507fffffffffffffffffffffffffffffffffffffffffffffffffffffffffffffffff82036118c2576118c1611731565b5b600182019050919050565b60006060820190506118e2600083018661119c565b6118ef602083018561119c565b6118fc6040830184611335565b949350505050565b600061190f82611107565b915061191a83611107565b92508282101561192d5761192c611731565b5b82820390509291505056fea2646970667358221220644366beb5672c417cef2fae48d306668e619bdafc7f1ec9c0ed1a0190e1af8c64736f6c634300080d0033a2646970667358221220cd3a64b746051f71dc2f088d624347ff044fa3863342f9230769fe45ba50b81364736f6c634300080d0033",
  "linkReferences": {},
  "deployedLinkReferences": {}
}