{
  "_format": "hh-sol-artifact-1",
  "contractName": "Identity",
  "sourceName": "contracts/Identity.sol",
  "abi": [
    {
      "inputs": [
        {
          "internalType": "address[]",
          "name": "_owners",
          "type": "address[]"
        },
        {
          "internalType": "uint256[]",
          "name": "_equities",
          "type": "uint256[]"
        }
      ],
      "stateMutability": "nonpayable",
      "type": "constructor"
    },
    {
      "inputs": [
        {
          "internalType": "address",
          "name": "token",
          "type": "address"
        }
      ],
      "name": "acceptErc20",
      "outputs": [],
      "stateMutability": "nonpayable",
      "type": "function"
    },
    {
      "inputs": [
        {
          "internalType": "uint256",
          "name": "",
          "type": "uint256"
        }
      ],
      "name": "acceptedTokens",
      "outputs": [
        {
          "internalType": "address",
          "name": "",
          "type": "address"
        }
      ],
      "stateMutability": "view",
      "type": "function"
    },
    {
      "inputs": [],
      "name": "disintegrate",
      "outputs": [],
      "stateMutability": "nonpayable",
      "type": "function"
    },
    {
      "inputs": [
        {
          "internalType": "address",
          "name": "",
          "type": "address"
        }
      ],
      "name": "equities",
      "outputs": [
        {
          "internalType": "uint256",
          "name": "",
          "type": "uint256"
        }
      ],
      "stateMutability": "view",
      "type": "function"
    },
    {
      "inputs": [],
      "name": "getAcceptedTokens",
      "outputs": [
        {
          "internalType": "address[]",
          "name": "",
          "type": "address[]"
        }
      ],
      "stateMutability": "view",
      "type": "function"
    },
    {
      "inputs": [],
      "name": "getNfts",
      "outputs": [
        {
          "components": [
            {
              "internalType": "address",
              "name": "sentBy",
              "type": "address"
            },
            {
              "internalType": "address",
              "name": "collection",
              "type": "address"
            },
            {
              "internalType": "uint256",
              "name": "tokenId",
              "type": "uint256"
            },
            {
              "internalType": "uint256",
              "name": "sentAt",
              "type": "uint256"
            }
          ],
          "internalType": "struct Identity.NFT[]",
          "name": "",
          "type": "tuple[]"
        }
      ],
      "stateMutability": "view",
      "type": "function"
    },
    {
      "inputs": [],
      "name": "getOwners",
      "outputs": [
        {
          "internalType": "address[]",
          "name": "",
          "type": "address[]"
        }
      ],
      "stateMutability": "view",
      "type": "function"
    },
    {
      "inputs": [
        {
          "internalType": "address",
          "name": "nftCollection",
          "type": "address"
        },
        {
          "internalType": "uint256",
          "name": "tokenId",
          "type": "uint256"
        }
      ],
      "name": "hasNft",
      "outputs": [
        {
          "internalType": "bool",
          "name": "",
          "type": "bool"
        },
        {
          "internalType": "uint256",
          "name": "",
          "type": "uint256"
        }
      ],
      "stateMutability": "view",
      "type": "function"
    },
    {
      "inputs": [
        {
          "internalType": "address",
          "name": "",
          "type": "address"
        }
      ],
      "name": "isOwner",
      "outputs": [
        {
          "internalType": "bool",
          "name": "",
          "type": "bool"
        }
      ],
      "stateMutability": "view",
      "type": "function"
    },
    {
      "inputs": [
        {
          "internalType": "uint256",
          "name": "",
          "type": "uint256"
        }
      ],
      "name": "nfts",
      "outputs": [
        {
          "internalType": "address",
          "name": "sentBy",
          "type": "address"
        },
        {
          "internalType": "address",
          "name": "collection",
          "type": "address"
        },
        {
          "internalType": "uint256",
          "name": "tokenId",
          "type": "uint256"
        },
        {
          "internalType": "uint256",
          "name": "sentAt",
          "type": "uint256"
        }
      ],
      "stateMutability": "view",
      "type": "function"
    },
    {
      "inputs": [
        {
          "internalType": "address",
          "name": "",
          "type": "address"
        },
        {
          "internalType": "address",
          "name": "",
          "type": "address"
        },
        {
          "internalType": "uint256",
          "name": "",
          "type": "uint256"
        },
        {
          "internalType": "bytes",
          "name": "",
          "type": "bytes"
        }
      ],
      "name": "onERC721Received",
      "outputs": [
        {
          "internalType": "bytes4",
          "name": "",
          "type": "bytes4"
        }
      ],
      "stateMutability": "nonpayable",
      "type": "function"
    },
    {
      "inputs": [
        {
          "internalType": "uint256",
          "name": "",
          "type": "uint256"
        }
      ],
      "name": "owners",
      "outputs": [
        {
          "internalType": "address",
          "name": "",
          "type": "address"
        }
      ],
      "stateMutability": "view",
      "type": "function"
    },
    {
      "inputs": [
        {
          "internalType": "address",
          "name": "nftCollection",
          "type": "address"
        },
        {
          "internalType": "uint256",
          "name": "tokenId",
          "type": "uint256"
        }
      ],
      "name": "transferNFT",
      "outputs": [],
      "stateMutability": "nonpayable",
      "type": "function"
    },
    {
      "inputs": [],
      "name": "withdraw",
      "outputs": [],
      "stateMutability": "nonpayable",
      "type": "function"
    },
    {
      "stateMutability": "payable",
      "type": "receive"
    }
  ],
  "bytecode": "0x60806040523480156200001157600080fd5b50604051620022f3380380620022f383398181016040528101906200003791906200051c565b81600090805190602001906200004f9291906200016f565b5060005b82518110156200016657600160026000858481518110620000795762000078620005a1565b5b602002602001015173ffffffffffffffffffffffffffffffffffffffff1673ffffffffffffffffffffffffffffffffffffffff16815260200190815260200160002060006101000a81548160ff021916908315150217905550818181518110620000e857620000e7620005a1565b5b6020026020010151600360008584815181106200010a5762000109620005a1565b5b602002602001015173ffffffffffffffffffffffffffffffffffffffff1673ffffffffffffffffffffffffffffffffffffffff1681526020019081526020016000208190555080806200015d90620005ff565b91505062000053565b5050506200064c565b828054828255906000526020600020908101928215620001eb579160200282015b82811115620001ea5782518260006101000a81548173ffffffffffffffffffffffffffffffffffffffff021916908373ffffffffffffffffffffffffffffffffffffffff1602179055509160200191906001019062000190565b5b509050620001fa9190620001fe565b5090565b5b8082111562000219576000816000905550600101620001ff565b5090565b6000604051905090565b600080fd5b600080fd5b600080fd5b6000601f19601f8301169050919050565b7f4e487b7100000000000000000000000000000000000000000000000000000000600052604160045260246000fd5b620002818262000236565b810181811067ffffffffffffffff82111715620002a357620002a262000247565b5b80604052505050565b6000620002b86200021d565b9050620002c6828262000276565b919050565b600067ffffffffffffffff821115620002e957620002e862000247565b5b602082029050602081019050919050565b600080fd5b600073ffffffffffffffffffffffffffffffffffffffff82169050919050565b60006200032c82620002ff565b9050919050565b6200033e816200031f565b81146200034a57600080fd5b50565b6000815190506200035e8162000333565b92915050565b60006200037b6200037584620002cb565b620002ac565b90508083825260208201905060208402830185811115620003a157620003a0620002fa565b5b835b81811015620003ce5780620003b988826200034d565b845260208401935050602081019050620003a3565b5050509392505050565b600082601f830112620003f057620003ef62000231565b5b81516200040284826020860162000364565b91505092915050565b600067ffffffffffffffff82111562000429576200042862000247565b5b602082029050602081019050919050565b6000819050919050565b6200044f816200043a565b81146200045b57600080fd5b50565b6000815190506200046f8162000444565b92915050565b60006200048c62000486846200040b565b620002ac565b90508083825260208201905060208402830185811115620004b257620004b1620002fa565b5b835b81811015620004df5780620004ca88826200045e565b845260208401935050602081019050620004b4565b5050509392505050565b600082601f83011262000501576200050062000231565b5b81516200051384826020860162000475565b91505092915050565b6000806040838503121562000536576200053562000227565b5b600083015167ffffffffffffffff8111156200055757620005566200022c565b5b6200056585828601620003d8565b925050602083015167ffffffffffffffff8111156200058957620005886200022c565b5b6200059785828601620004e9565b9150509250929050565b7f4e487b7100000000000000000000000000000000000000000000000000000000600052603260045260246000fd5b7f4e487b7100000000000000000000000000000000000000000000000000000000600052601160045260246000fd5b60006200060c826200043a565b91507fffffffffffffffffffffffffffffffffffffffffffffffffffffffffffffffff8203620006415762000640620005d0565b5b600182019050919050565b611c97806200065c6000396000f3fe6080604052600436106100e15760003560e01c806394ab67fe1161007f578063c387892d11610059578063c387892d146102f5578063d87bf3f514610332578063d8cb55e31461035b578063f0a4712814610386576100e8565b806394ab67fe14610263578063a0e67e2b1461028c578063a2fa8825146102b7576100e8565b80632f54bf6e116100bb5780632f54bf6e146101a75780632f757006146101e457806336c877541461020f5780633ccfd60b1461024c576100e8565b8063025e7c27146100ed578063150b7a021461012a578063265aa62114610167576100e8565b366100e857005b600080fd5b3480156100f957600080fd5b50610114600480360381019061010f91906112dc565b61039d565b604051610121919061134a565b60405180910390f35b34801561013657600080fd5b50610151600480360381019061014c91906114d7565b6103dc565b60405161015e9190611595565b60405180910390f35b34801561017357600080fd5b5061018e600480360381019061018991906112dc565b6103f0565b60405161019e94939291906115bf565b60405180910390f35b3480156101b357600080fd5b506101ce60048036038101906101c99190611604565b610470565b6040516101db919061164c565b60405180910390f35b3480156101f057600080fd5b506101f9610490565b6040516102069190611725565b60405180910390f35b34801561021b57600080fd5b50610236600480360381019061023191906112dc565b61051e565b604051610243919061134a565b60405180910390f35b34801561025857600080fd5b5061026161055d565b005b34801561026f57600080fd5b5061028a60048036038101906102859190611747565b6109b5565b005b34801561029857600080fd5b506102a1610cc6565b6040516102ae9190611725565b60405180910390f35b3480156102c357600080fd5b506102de60048036038101906102d99190611747565b610d54565b6040516102ec929190611787565b60405180910390f35b34801561030157600080fd5b5061031c60048036038101906103179190611604565b610e6c565b60405161032991906117b0565b60405180910390f35b34801561033e57600080fd5b5061035960048036038101906103549190611604565b610e84565b005b34801561036757600080fd5b50610370610f7d565b60405161037d91906118de565b60405180910390f35b34801561039257600080fd5b5061039b61109c565b005b600081815481106103ad57600080fd5b906000526020600020016000915054906101000a900473ffffffffffffffffffffffffffffffffffffffff1681565b600063150b7a0260e01b9050949350505050565b6004818154811061040057600080fd5b90600052602060002090600402016000915090508060000160009054906101000a900473ffffffffffffffffffffffffffffffffffffffff16908060010160009054906101000a900473ffffffffffffffffffffffffffffffffffffffff16908060020154908060030154905084565b60026020528060005260406000206000915054906101000a900460ff1681565b6060600180548060200260200160405190810160405280929190818152602001828054801561051457602002820191906000526020600020905b8160009054906101000a900473ffffffffffffffffffffffffffffffffffffffff1673ffffffffffffffffffffffffffffffffffffffff16815260200190600101908083116104ca575b5050505050905090565b6001818154811061052e57600080fd5b906000526020600020016000915054906101000a900473ffffffffffffffffffffffffffffffffffffffff1681565b60011515600260003373ffffffffffffffffffffffffffffffffffffffff1673ffffffffffffffffffffffffffffffffffffffff16815260200190815260200160002060009054906101000a900460ff161515146105f0576040517f08c379a00000000000000000000000000000000000000000000000000000000081526004016105e79061195d565b60405180910390fd5b600047905060005b60008054905081101561073057600081815481106106195761061861197d565b5b9060005260206000200160009054906101000a900473ffffffffffffffffffffffffffffffffffffffff1673ffffffffffffffffffffffffffffffffffffffff166108fc6064600360008086815481106106765761067561197d565b5b9060005260206000200160009054906101000a900473ffffffffffffffffffffffffffffffffffffffff1673ffffffffffffffffffffffffffffffffffffffff1673ffffffffffffffffffffffffffffffffffffffff16815260200190815260200160002054856106e791906119db565b6106f19190611a64565b9081150290604051600060405180830381858888f1935050505015801561071c573d6000803e3d6000fd5b50808061072890611a95565b9150506105f8565b5060005b6001805490508110156109b1576000600182815481106107575761075661197d565b5b9060005260206000200160009054906101000a900473ffffffffffffffffffffffffffffffffffffffff1673ffffffffffffffffffffffffffffffffffffffff166370a08231306040518263ffffffff1660e01b81526004016107ba919061134a565b602060405180830381865afa1580156107d7573d6000803e3d6000fd5b505050506040513d601f19601f820116820180604052508101906107fb9190611af2565b905060005b60008054905081101561099c57600183815481106108215761082061197d565b5b9060005260206000200160009054906101000a900473ffffffffffffffffffffffffffffffffffffffff1673ffffffffffffffffffffffffffffffffffffffff1663a9059cbb6000838154811061087b5761087a61197d565b5b9060005260206000200160009054906101000a900473ffffffffffffffffffffffffffffffffffffffff166064600360008087815481106108bf576108be61197d565b5b9060005260206000200160009054906101000a900473ffffffffffffffffffffffffffffffffffffffff1673ffffffffffffffffffffffffffffffffffffffff1673ffffffffffffffffffffffffffffffffffffffff168152602001908152602001600020548661093091906119db565b61093a9190611a64565b6040518363ffffffff1660e01b8152600401610957929190611b1f565b600060405180830381600087803b15801561097157600080fd5b505af1158015610985573d6000803e3d6000fd5b50505050808061099490611a95565b915050610800565b505080806109a990611a95565b915050610734565b5050565b60011515600260003373ffffffffffffffffffffffffffffffffffffffff1673ffffffffffffffffffffffffffffffffffffffff16815260200190815260200160002060009054906101000a900460ff16151514610a48576040517f08c379a0000000000000000000000000000000000000000000000000000000008152600401610a3f9061195d565b60405180910390fd5b3073ffffffffffffffffffffffffffffffffffffffff168273ffffffffffffffffffffffffffffffffffffffff1663081812fc836040518263ffffffff1660e01b8152600401610a9891906117b0565b6020604051808303816000875af1158015610ab7573d6000803e3d6000fd5b505050506040513d601f19601f82011682018060405250810190610adb9190611b5d565b73ffffffffffffffffffffffffffffffffffffffff1614610b31576040517f08c379a0000000000000000000000000000000000000000000000000000000008152600401610b2890611bd6565b60405180910390fd5b8173ffffffffffffffffffffffffffffffffffffffff166342842e0e3330846040518463ffffffff1660e01b8152600401610b6e93929190611bf6565b600060405180830381600087803b158015610b8857600080fd5b505af1158015610b9c573d6000803e3d6000fd5b50505050600060405180608001604052803373ffffffffffffffffffffffffffffffffffffffff1681526020018473ffffffffffffffffffffffffffffffffffffffff168152602001838152602001438152509050600481908060018154018082558091505060019003906000526020600020906004020160009091909190915060008201518160000160006101000a81548173ffffffffffffffffffffffffffffffffffffffff021916908373ffffffffffffffffffffffffffffffffffffffff16021790555060208201518160010160006101000a81548173ffffffffffffffffffffffffffffffffffffffff021916908373ffffffffffffffffffffffffffffffffffffffff16021790555060408201518160020155606082015181600301555050505050565b60606000805480602002602001604051908101604052809291908181526020018280548015610d4a57602002820191906000526020600020905b8160009054906101000a900473ffffffffffffffffffffffffffffffffffffffff1673ffffffffffffffffffffffffffffffffffffffff1681526020019060010190808311610d00575b5050505050905090565b60008060008060005b600480549050811015610e5c578673ffffffffffffffffffffffffffffffffffffffff1660048281548110610d9557610d9461197d565b5b906000526020600020906004020160010160009054906101000a900473ffffffffffffffffffffffffffffffffffffffff1673ffffffffffffffffffffffffffffffffffffffff16148015610e0e57508560048281548110610dfa57610df961197d565b5b906000526020600020906004020160020154145b15610e4b576001925060048181548110610e2b57610e2a61197d565b5b90600052602060002090600402016003015443610e489190611c2d565b91505b80610e5590611a95565b9050610d5d565b5081819350935050509250929050565b60036020528060005260406000206000915090505481565b60011515600260003373ffffffffffffffffffffffffffffffffffffffff1673ffffffffffffffffffffffffffffffffffffffff16815260200190815260200160002060009054906101000a900460ff16151514610f17576040517f08c379a0000000000000000000000000000000000000000000000000000000008152600401610f0e9061195d565b60405180910390fd5b6001819080600181540180825580915050600190039060005260206000200160009091909190916101000a81548173ffffffffffffffffffffffffffffffffffffffff021916908373ffffffffffffffffffffffffffffffffffffffff16021790555050565b60606004805480602002602001604051908101604052809291908181526020016000905b8282101561109357838290600052602060002090600402016040518060800160405290816000820160009054906101000a900473ffffffffffffffffffffffffffffffffffffffff1673ffffffffffffffffffffffffffffffffffffffff1673ffffffffffffffffffffffffffffffffffffffff1681526020016001820160009054906101000a900473ffffffffffffffffffffffffffffffffffffffff1673ffffffffffffffffffffffffffffffffffffffff1673ffffffffffffffffffffffffffffffffffffffff1681526020016002820154815260200160038201548152505081526020019060010190610fa1565b50505050905090565b60011515600260003373ffffffffffffffffffffffffffffffffffffffff1673ffffffffffffffffffffffffffffffffffffffff16815260200190815260200160002060009054906101000a900460ff1615151461112f576040517f08c379a00000000000000000000000000000000000000000000000000000000081526004016111269061195d565b60405180910390fd5b61113761055d565b60005b600480549050811015611278576004818154811061115b5761115a61197d565b5b906000526020600020906004020160010160009054906101000a900473ffffffffffffffffffffffffffffffffffffffff1673ffffffffffffffffffffffffffffffffffffffff166342842e0e30600484815481106111bd576111bc61197d565b5b906000526020600020906004020160000160009054906101000a900473ffffffffffffffffffffffffffffffffffffffff16600485815481106112035761120261197d565b5b9060005260206000209060040201600201546040518463ffffffff1660e01b815260040161123393929190611bf6565b600060405180830381600087803b15801561124d57600080fd5b505af1158015611261573d6000803e3d6000fd5b50505050808061127090611a95565b91505061113a565b503373ffffffffffffffffffffffffffffffffffffffff16ff5b6000604051905090565b600080fd5b600080fd5b6000819050919050565b6112b9816112a6565b81146112c457600080fd5b50565b6000813590506112d6816112b0565b92915050565b6000602082840312156112f2576112f161129c565b5b6000611300848285016112c7565b91505092915050565b600073ffffffffffffffffffffffffffffffffffffffff82169050919050565b600061133482611309565b9050919050565b61134481611329565b82525050565b600060208201905061135f600083018461133b565b92915050565b61136e81611329565b811461137957600080fd5b50565b60008135905061138b81611365565b92915050565b600080fd5b600080fd5b6000601f19601f8301169050919050565b7f4e487b7100000000000000000000000000000000000000000000000000000000600052604160045260246000fd5b6113e48261139b565b810181811067ffffffffffffffff82111715611403576114026113ac565b5b80604052505050565b6000611416611292565b905061142282826113db565b919050565b600067ffffffffffffffff821115611442576114416113ac565b5b61144b8261139b565b9050602081019050919050565b82818337600083830152505050565b600061147a61147584611427565b61140c565b90508281526020810184848401111561149657611495611396565b5b6114a1848285611458565b509392505050565b600082601f8301126114be576114bd611391565b5b81356114ce848260208601611467565b91505092915050565b600080600080608085870312156114f1576114f061129c565b5b60006114ff8782880161137c565b94505060206115108782880161137c565b9350506040611521878288016112c7565b925050606085013567ffffffffffffffff811115611542576115416112a1565b5b61154e878288016114a9565b91505092959194509250565b60007fffffffff0000000000000000000000000000000000000000000000000000000082169050919050565b61158f8161155a565b82525050565b60006020820190506115aa6000830184611586565b92915050565b6115b9816112a6565b82525050565b60006080820190506115d4600083018761133b565b6115e1602083018661133b565b6115ee60408301856115b0565b6115fb60608301846115b0565b95945050505050565b60006020828403121561161a5761161961129c565b5b60006116288482850161137c565b91505092915050565b60008115159050919050565b61164681611631565b82525050565b6000602082019050611661600083018461163d565b92915050565b600081519050919050565b600082825260208201905092915050565b6000819050602082019050919050565b61169c81611329565b82525050565b60006116ae8383611693565b60208301905092915050565b6000602082019050919050565b60006116d282611667565b6116dc8185611672565b93506116e783611683565b8060005b838110156117185781516116ff88826116a2565b975061170a836116ba565b9250506001810190506116eb565b5085935050505092915050565b6000602082019050818103600083015261173f81846116c7565b905092915050565b6000806040838503121561175e5761175d61129c565b5b600061176c8582860161137c565b925050602061177d858286016112c7565b9150509250929050565b600060408201905061179c600083018561163d565b6117a960208301846115b0565b9392505050565b60006020820190506117c560008301846115b0565b92915050565b600081519050919050565b600082825260208201905092915050565b6000819050602082019050919050565b611800816112a6565b82525050565b60808201600082015161181c6000850182611693565b50602082015161182f6020850182611693565b50604082015161184260408501826117f7565b50606082015161185560608501826117f7565b50505050565b60006118678383611806565b60808301905092915050565b6000602082019050919050565b600061188b826117cb565b61189581856117d6565b93506118a0836117e7565b8060005b838110156118d15781516118b8888261185b565b97506118c383611873565b9250506001810190506118a4565b5085935050505092915050565b600060208201905081810360008301526118f88184611880565b905092915050565b600082825260208201905092915050565b7f6e6f742061206f776e6572000000000000000000000000000000000000000000600082015250565b6000611947600b83611900565b915061195282611911565b602082019050919050565b600060208201905081810360008301526119768161193a565b9050919050565b7f4e487b7100000000000000000000000000000000000000000000000000000000600052603260045260246000fd5b7f4e487b7100000000000000000000000000000000000000000000000000000000600052601160045260246000fd5b60006119e6826112a6565b91506119f1836112a6565b9250817fffffffffffffffffffffffffffffffffffffffffffffffffffffffffffffffff0483118215151615611a2a57611a296119ac565b5b828202905092915050565b7f4e487b7100000000000000000000000000000000000000000000000000000000600052601260045260246000fd5b6000611a6f826112a6565b9150611a7a836112a6565b925082611a8a57611a89611a35565b5b828204905092915050565b6000611aa0826112a6565b91507fffffffffffffffffffffffffffffffffffffffffffffffffffffffffffffffff8203611ad257611ad16119ac565b5b600182019050919050565b600081519050611aec816112b0565b92915050565b600060208284031215611b0857611b0761129c565b5b6000611b1684828501611add565b91505092915050565b6000604082019050611b34600083018561133b565b611b4160208301846115b0565b9392505050565b600081519050611b5781611365565b92915050565b600060208284031215611b7357611b7261129c565b5b6000611b8184828501611b48565b91505092915050565b7f636f6e7472616374206e6f7420617070726f7665640000000000000000000000600082015250565b6000611bc0601583611900565b9150611bcb82611b8a565b602082019050919050565b60006020820190508181036000830152611bef81611bb3565b9050919050565b6000606082019050611c0b600083018661133b565b611c18602083018561133b565b611c2560408301846115b0565b949350505050565b6000611c38826112a6565b9150611c43836112a6565b925082821015611c5657611c556119ac565b5b82820390509291505056fea2646970667358221220f67e562c0a43856da81f02c8d72702185a4db30d1e79595e98186d68762b887864736f6c634300080d0033",
  "linkReferences": {},
  "deployedLinkReferences": {}
}